{
  "_format": "hh-sol-artifact-1",
  "contractName": "Upload",
  "sourceName": "contracts/Upload.sol",
  "abi": [
    {
      "inputs": [
        {
          "internalType": "address",
          "name": "_user",
          "type": "address"
        },
        {
          "internalType": "string",
          "name": "url",
          "type": "string"
        }
      ],
      "name": "add",
      "outputs": [],
      "stateMutability": "nonpayable",
      "type": "function"
    },
    {
      "inputs": [
        {
          "internalType": "address",
          "name": "user",
          "type": "address"
        }
      ],
      "name": "allow",
      "outputs": [],
      "stateMutability": "nonpayable",
      "type": "function"
    },
    {
      "inputs": [
        {
          "internalType": "address",
          "name": "user",
          "type": "address"
        }
      ],
      "name": "disallow",
      "outputs": [],
      "stateMutability": "nonpayable",
      "type": "function"
    },
    {
      "inputs": [
        {
          "internalType": "address",
          "name": "_user",
          "type": "address"
        }
      ],
      "name": "display",
      "outputs": [
        {
          "internalType": "string[]",
          "name": "",
          "type": "string[]"
        }
      ],
      "stateMutability": "view",
      "type": "function"
    },
    {
      "inputs": [
        {
          "internalType": "address",
          "name": "_user",
          "type": "address"
        },
        {
          "internalType": "string",
          "name": "url",
          "type": "string"
        }
      ],
      "name": "erase",
      "outputs": [],
      "stateMutability": "nonpayable",
      "type": "function"
    },
    {
      "inputs": [],
      "name": "shareAccess",
      "outputs": [
        {
          "components": [
            {
              "internalType": "address",
              "name": "user",
              "type": "address"
            },
            {
              "internalType": "bool",
              "name": "access",
              "type": "bool"
            }
          ],
          "internalType": "struct Upload.Access[]",
          "name": "",
          "type": "tuple[]"
        }
      ],
      "stateMutability": "view",
      "type": "function"
    }
  ],
  "bytecode": "0x608060405234801561001057600080fd5b506116b9806100206000396000f3fe608060405234801561001057600080fd5b50600436106100625760003560e01c806336d6da551461006757806363eb945614610083578063a9ed9cb81461009f578063bc8bef81146100bb578063eb39113f146100d9578063ff9913e814610109575b600080fd5b610081600480360381019061007c9190611008565b610125565b005b61009d60048036038101906100989190611008565b6101a1565b005b6100b960048036038101906100b49190611064565b610357565b005b6100c361057a565b6040516100d09190611199565b60405180910390f35b6100f360048036038101906100ee9190611064565b610683565b6040516101009190611305565b60405180910390f35b610123600480360381019061011e9190611064565b610899565b005b6000808373ffffffffffffffffffffffffffffffffffffffff1673ffffffffffffffffffffffffffffffffffffffff1681526020019081526020016000208190806001815401808255809150506001900390600052602060002001600090919091909150908051906020019061019c929190610ce0565b505050565b60008060008473ffffffffffffffffffffffffffffffffffffffff1673ffffffffffffffffffffffffffffffffffffffff16815260200190815260200160002090506000805b828054905081101561031057836040516020016102049190611363565b6040516020818303038152906040528051906020012083828154811061022d5761022c61137a565b5b90600052602060002001604051602001610247919061149e565b6040516020818303038152906040528051906020012014156102fd57826001848054905061027591906114ee565b815481106102865761028561137a565b5b906000526020600020018382815481106102a3576102a261137a565b5b906000526020600020019080546102b9906113d8565b6102c4929190610d66565b50828054806102d6576102d5611522565b5b6001900381819060005260206000200160006102f29190610df3565b905560019150610310565b808061030890611551565b9150506101e7565b5080610351576040517f08c379a0000000000000000000000000000000000000000000000000000000008152600401610348906115f7565b60405180910390fd5b50505050565b6000600160003373ffffffffffffffffffffffffffffffffffffffff1673ffffffffffffffffffffffffffffffffffffffff16815260200190815260200160002060008373ffffffffffffffffffffffffffffffffffffffff1673ffffffffffffffffffffffffffffffffffffffff16815260200190815260200160002060006101000a81548160ff02191690831515021790555060005b600260003373ffffffffffffffffffffffffffffffffffffffff1673ffffffffffffffffffffffffffffffffffffffff16815260200190815260200160002080549050811015610576578173ffffffffffffffffffffffffffffffffffffffff16600260003373ffffffffffffffffffffffffffffffffffffffff1673ffffffffffffffffffffffffffffffffffffffff16815260200190815260200160002082815481106104a1576104a061137a565b5b9060005260206000200160000160009054906101000a900473ffffffffffffffffffffffffffffffffffffffff1673ffffffffffffffffffffffffffffffffffffffff161415610563576000600260003373ffffffffffffffffffffffffffffffffffffffff1673ffffffffffffffffffffffffffffffffffffffff168152602001908152602001600020828154811061053e5761053d61137a565b5b9060005260206000200160000160146101000a81548160ff0219169083151502179055505b808061056e90611551565b9150506103ef565b5050565b6060600260003373ffffffffffffffffffffffffffffffffffffffff1673ffffffffffffffffffffffffffffffffffffffff168152602001908152602001600020805480602002602001604051908101604052809291908181526020016000905b8282101561067a578382906000526020600020016040518060400160405290816000820160009054906101000a900473ffffffffffffffffffffffffffffffffffffffff1673ffffffffffffffffffffffffffffffffffffffff1673ffffffffffffffffffffffffffffffffffffffff1681526020016000820160149054906101000a900460ff161515151581525050815260200190600101906105db565b50505050905090565b60603373ffffffffffffffffffffffffffffffffffffffff168273ffffffffffffffffffffffffffffffffffffffff1614806107455750600160008373ffffffffffffffffffffffffffffffffffffffff1673ffffffffffffffffffffffffffffffffffffffff16815260200190815260200160002060003373ffffffffffffffffffffffffffffffffffffffff1673ffffffffffffffffffffffffffffffffffffffff16815260200190815260200160002060009054906101000a900460ff165b610784576040517f08c379a000000000000000000000000000000000000000000000000000000000815260040161077b90611663565b60405180910390fd5b6000808373ffffffffffffffffffffffffffffffffffffffff1673ffffffffffffffffffffffffffffffffffffffff168152602001908152602001600020805480602002602001604051908101604052809291908181526020016000905b8282101561088e578382906000526020600020018054610801906113d8565b80601f016020809104026020016040519081016040528092919081815260200182805461082d906113d8565b801561087a5780601f1061084f5761010080835404028352916020019161087a565b820191906000526020600020905b81548152906001019060200180831161085d57829003601f168201915b5050505050815260200190600101906107e2565b505050509050919050565b60018060003373ffffffffffffffffffffffffffffffffffffffff1673ffffffffffffffffffffffffffffffffffffffff16815260200190815260200160002060008373ffffffffffffffffffffffffffffffffffffffff1673ffffffffffffffffffffffffffffffffffffffff16815260200190815260200160002060006101000a81548160ff021916908315150217905550600360003373ffffffffffffffffffffffffffffffffffffffff1673ffffffffffffffffffffffffffffffffffffffff16815260200190815260200160002060008273ffffffffffffffffffffffffffffffffffffffff1673ffffffffffffffffffffffffffffffffffffffff16815260200190815260200160002060009054906101000a900460ff1615610b4c5760005b600260003373ffffffffffffffffffffffffffffffffffffffff1673ffffffffffffffffffffffffffffffffffffffff16815260200190815260200160002080549050811015610b46578173ffffffffffffffffffffffffffffffffffffffff16600260003373ffffffffffffffffffffffffffffffffffffffff1673ffffffffffffffffffffffffffffffffffffffff1681526020019081526020016000208281548110610a7157610a7061137a565b5b9060005260206000200160000160009054906101000a900473ffffffffffffffffffffffffffffffffffffffff1673ffffffffffffffffffffffffffffffffffffffff161415610b33576001600260003373ffffffffffffffffffffffffffffffffffffffff1673ffffffffffffffffffffffffffffffffffffffff1681526020019081526020016000208281548110610b0e57610b0d61137a565b5b9060005260206000200160000160146101000a81548160ff0219169083151502179055505b8080610b3e90611551565b9150506109bf565b50610cdd565b600260003373ffffffffffffffffffffffffffffffffffffffff1673ffffffffffffffffffffffffffffffffffffffff16815260200190815260200160002060405180604001604052808373ffffffffffffffffffffffffffffffffffffffff168152602001600115158152509080600181540180825580915050600190039060005260206000200160009091909190915060008201518160000160006101000a81548173ffffffffffffffffffffffffffffffffffffffff021916908373ffffffffffffffffffffffffffffffffffffffff16021790555060208201518160000160146101000a81548160ff02191690831515021790555050506001600360003373ffffffffffffffffffffffffffffffffffffffff1673ffffffffffffffffffffffffffffffffffffffff16815260200190815260200160002060008373ffffffffffffffffffffffffffffffffffffffff1673ffffffffffffffffffffffffffffffffffffffff16815260200190815260200160002060006101000a81548160ff0219169083151502179055505b50565b828054610cec906113d8565b90600052602060002090601f016020900481019282610d0e5760008555610d55565b82601f10610d2757805160ff1916838001178555610d55565b82800160010185558215610d55579182015b82811115610d54578251825591602001919060010190610d39565b5b509050610d629190610e33565b5090565b828054610d72906113d8565b90600052602060002090601f016020900481019282610d945760008555610de2565b82601f10610da55780548555610de2565b82800160010185558215610de257600052602060002091601f016020900482015b82811115610de1578254825591600101919060010190610dc6565b5b509050610def9190610e33565b5090565b508054610dff906113d8565b6000825580601f10610e115750610e30565b601f016020900490600052602060002090810190610e2f9190610e33565b5b50565b5b80821115610e4c576000816000905550600101610e34565b5090565b6000604051905090565b600080fd5b600080fd5b600073ffffffffffffffffffffffffffffffffffffffff82169050919050565b6000610e8f82610e64565b9050919050565b610e9f81610e84565b8114610eaa57600080fd5b50565b600081359050610ebc81610e96565b92915050565b600080fd5b600080fd5b6000601f19601f8301169050919050565b7f4e487b7100000000000000000000000000000000000000000000000000000000600052604160045260246000fd5b610f1582610ecc565b810181811067ffffffffffffffff82111715610f3457610f33610edd565b5b80604052505050565b6000610f47610e50565b9050610f538282610f0c565b919050565b600067ffffffffffffffff821115610f7357610f72610edd565b5b610f7c82610ecc565b9050602081019050919050565b82818337600083830152505050565b6000610fab610fa684610f58565b610f3d565b905082815260208101848484011115610fc757610fc6610ec7565b5b610fd2848285610f89565b509392505050565b600082601f830112610fef57610fee610ec2565b5b8135610fff848260208601610f98565b91505092915050565b6000806040838503121561101f5761101e610e5a565b5b600061102d85828601610ead565b925050602083013567ffffffffffffffff81111561104e5761104d610e5f565b5b61105a85828601610fda565b9150509250929050565b60006020828403121561107a57611079610e5a565b5b600061108884828501610ead565b91505092915050565b600081519050919050565b600082825260208201905092915050565b6000819050602082019050919050565b6110c681610e84565b82525050565b60008115159050919050565b6110e1816110cc565b82525050565b6040820160008201516110fd60008501826110bd565b50602082015161111060208501826110d8565b50505050565b600061112283836110e7565b60408301905092915050565b6000602082019050919050565b600061114682611091565b611150818561109c565b935061115b836110ad565b8060005b8381101561118c5781516111738882611116565b975061117e8361112e565b92505060018101905061115f565b5085935050505092915050565b600060208201905081810360008301526111b3818461113b565b905092915050565b600081519050919050565b600082825260208201905092915050565b6000819050602082019050919050565b600081519050919050565b600082825260208201905092915050565b60005b83811015611221578082015181840152602081019050611206565b83811115611230576000848401525b50505050565b6000611241826111e7565b61124b81856111f2565b935061125b818560208601611203565b61126481610ecc565b840191505092915050565b600061127b8383611236565b905092915050565b6000602082019050919050565b600061129b826111bb565b6112a581856111c6565b9350836020820285016112b7856111d7565b8060005b858110156112f357848403895281516112d4858261126f565b94506112df83611283565b925060208a019950506001810190506112bb565b50829750879550505050505092915050565b6000602082019050818103600083015261131f8184611290565b905092915050565b600081905092915050565b600061133d826111e7565b6113478185611327565b9350611357818560208601611203565b80840191505092915050565b600061136f8284611332565b915081905092915050565b7f4e487b7100000000000000000000000000000000000000000000000000000000600052603260045260246000fd5b7f4e487b7100000000000000000000000000000000000000000000000000000000600052602260045260246000fd5b600060028204905060018216806113f057607f821691505b60208210811415611404576114036113a9565b5b50919050565b60008190508160005260206000209050919050565b6000815461142c816113d8565b6114368186611327565b94506001821660008114611451576001811461146257611495565b60ff19831686528186019350611495565b61146b8561140a565b60005b8381101561148d5781548189015260018201915060208101905061146e565b838801955050505b50505092915050565b60006114aa828461141f565b915081905092915050565b6000819050919050565b7f4e487b7100000000000000000000000000000000000000000000000000000000600052601160045260246000fd5b60006114f9826114b5565b9150611504836114b5565b925082821015611517576115166114bf565b5b828203905092915050565b7f4e487b7100000000000000000000000000000000000000000000000000000000600052603160045260246000fd5b600061155c826114b5565b91507fffffffffffffffffffffffffffffffffffffffffffffffffffffffffffffffff82141561158f5761158e6114bf565b5b600182019050919050565b600082825260208201905092915050565b7f55524c206e6f7420666f756e6400000000000000000000000000000000000000600082015250565b60006115e1600d8361159a565b91506115ec826115ab565b602082019050919050565b60006020820190508181036000830152611610816115d4565b9050919050565b7f596f7520646f6e27742068617665206163636573730000000000000000000000600082015250565b600061164d60158361159a565b915061165882611617565b602082019050919050565b6000602082019050818103600083015261167c81611640565b905091905056fea264697066735822122039ac99e845a0174293d2dabc088275ab3f4ffcf9ceb3928c7eef8e43738d895264736f6c63430008090033",
  "linkReferences": {},
  "deployedLinkReferences": {}
}